:0A0000008316FF2390008312F52BF6
:1005AE000730990083169F0138308500831285012C
:1005BE008730831681003D30831281002610851905
:1005CE0026148312A610051AA6148312851005117F
:1005DE0005152830A401A800A9003F302517A51342
:1005EE00A504A615A401A6160108FF3A031D132B98
:1005FE003D30810029080319062BA9030A2BA51BE0
:10060E000A2BA517A616280803190F2BA803132BC0
:10061E00251F132B2513A61626080139AA00003014
:10062E00851901302A0603192F2B2610851D202B24
:10063E0026148312851D2F2B261D282B2830EF23E1
:10064E002C2B0230A517A8002517A616A615A40157
:10065E00260C0139AA000030051A01302A060319AA
:10066E005E2BA610051E3C2BA6148312051E5E2BB8
:10067E00210820040319502B0130A0020030031C66
:10068E00A103A102A808031D4E2B0230A8002517B6
:10069E00A61621082004031D5E2B261D5B2B283079
:1006AE00EF23A615A4015D2BA5172513A616A61DCF
:1006BE00D02BA408031D692B3F30A201A301A50472
:1006CE002510742B240B762B851A712B6430A20700
:1006DE000318A30A3F30A504A510A616CF2B240895
:1006EE00023A031D842B851A802BC830A2070318EB
:1006FE00A30A3F30A5042511742B2408033A031DC9
:10070E00942B851A902B9030A2070318A30A013060
:10071E00A3073F30A504A511742B2408043A031D2A
:10072E00A42B851AA02B2030A2070318A30A03308E
:10073E00A3073F30A5042512742B2408053A031D88
:10074E00B42B851AB02B4030A2070318A30A06302B
:10075E00A3073F30A504A512742B2408063A031DE7
:10076E00D02B851AC02B8030A2070318A30A0C3099
:10077E00A3073F30A5042308A1002208A0002308E8
:10078E002204031DCC2B2611CD2B2615A616A61141
:10079E00A40AA61EFB2A0830A700A7080319ED2BF2
:1007AE000130AA002708FF3E013EDF2B0310AA0DE1
:1007BE00FF3E031DDD2B2A0825050319E82B051422
:1007CE00E92B051085148510A703D42BA612FB2A3E
:1007DE00A80028302517A900A5130800A001A10123
:1007EE00A201A301A401A501A601A7018301D72A95
:084000000500090001000300A6
:02400E00D431AB
:00000001FF
