:1000000064002500030A6700680069006A006B004D
:0A0010006C006D006E006400C00A71
:100180006600380C0600C70C02003D0C2100000C74
:100190006606010C3F001F0243070D0543060D04D0
:1001A000000C8606010C3F001F0243072D05430685
:1001B0002D04260446044605280C6B002F00300051
:1001C0003F0CCC05EC042C016D056B00AD05010264
:1001D000FF0F4307FF0A3D0C210010024306F20AFD
:1001E000F000F60AEC06F60AEC05AD050F02430630
:1001F000FB0AEF00FF0ACC07FF0ACC04AD050D0295
:10020000010E3F00000C6606010C9F014306230B04
:10021000000C6606010C3F001F0243070D05430654
:100220000D046607230B4D071C0B280C2F00280C10
:10023000CC053000EC04200B020CEC052F00CC05A3
:10024000AD056D056B000D03010E3F00000C860629
:10025000010C9F0143065C0B000C8606010C3F005D
:100260001F0243072D0543062D0486075C0B080279
:10027000070143064A0B010C3C007D00A7001D024C
:100280000307E800A8002F024307480B020C2F00C9
:10029000CC05AD050802070143075C0B4D07590B60
:1002A000280C2F00280CCC053000EC046D056B00E9
:1002B0005B0BEC05CC04AD056D07DE0B2B02430791
:1002C000680B3F0C69006A002C010C04AD05DD0BC6
:1002D000CB02740BA606700B640CE9010306AA029C
:1002E0003F0C2C012C04660B0B02020F4307820B00
:1002F000A6067E0BC80CE9010306AA023F0C2C01DE
:100300004C04660B0B02030F4307960BA606920BD9
:10031000900C3C00010C3D001C02E9010306AA02FE
:100320001D02EA013F0C2C016C04660B0B02040F4A
:100330004307AA0BA606A60B200C3C00030C3D00AD
:100340001C02E9010306AA021D02EA013F0C2C016E
:100350008C04660B0B02050F4307BE0BA606BA0BF7
:10036000400C3C00060C3D001C02E9010306AA02F9
:100370001D02EA013F0C2C01AC04660B0B02060FB8
:100380004307DE0BA606CE0B800C3C000C0C3D0098
:100390001C02E9010306AA021D02EA013F0C2C011E
:1003A0000A022800090227000A0209014307DA0BA2
:1003B0004D04DB0B4D05AD056D04AB02AD07E70A3F
:1003C000080C2E002E024306FD0B0C023F00FF0C12
:1003D000CE013E00010CBE023D00F00B03047D0384
:1003E000FE02EE0B1D025F014306F80B0605F90B3A
:0E03F000060426052604EE00E20BAD04E70A23
:080400000500090001000300E2
:021FFE00EAFFF8
:00000001FF
